:020000040000fa
:10000000f07f002049a1010027df010029df010066
:1000100000000000000000000000000000000000e0
:1000200000000000000000000000000025df0100cb
:10003000000000000000000025df010025df0100b6
:1000400025df010025df010025df010025df01009c
:1000500025df010025df010025df010025df01008c
:1000600025df010025df01004d420100512f010075
:1000700025df010025df010025df010025df01006c
:1000800025df010025df010025df010025df01005c
:10009000d5c2010025df010025df010025df0100b9
:1000a00025df010025df010025df010025df01003c
:0c00b00025df010025df010025df010035
:020000040000fa
:1000bc00f8b5c046f8bc08bc9e46704729aa01009a
:1000cc00f8b5c046f8bc08bc9e46704701aa0100b2
:020000040000fa
:1000dc00ffffffffffffffffffffffffffffffff24
:1000ec00ffffffffffffffffffffffffffffffff14
:1000fc00ffffffffffffffffffffffffffffffff04
:10010c00fffffffffffffffffffffffffffffffff3
:1006cc00ffffffffffffdff7beefbeefdff7ffff20
:1006dc00ffffffffffffffffffffffffffffffff1e
:1006ec00ffffffffffffffffffffffffffffffff0e
:1006fc00fffffffffffffffffffffffffffffffffe
:10070c00ffffffffffffffffffffffffffffffffed
:10071c00ffffffffffffffffffffffffffffffffdd
:10072c00ffffffffffffffffffffffffffffffffcd
:10073c00ffffffffffffffffffffffffffffffffbd
:10074c00ffffffffffffffffffffffffffffffffad
:10075c00ffffffffffffffffffffffffffffffff9d
:10076c00ffffffffffffffffffffffffffffffff8d
:10077c00ffffffffffffffffffffffffffffffff7d
:10078c00ffffffffffffffffffffffffffffffff6d
:10079c00ffffffffffffffffffffffffffffffff5d
:1007ac00ffffffffffffffffffffffffffffffff4d
:1007bc00ffffffffffffffffffffffffffffffff3d
:1007cc00ffffffffffffffffffffffffffffffff2d
:1007dc00ffffffffffffffffffffffffffffffff1d
:1007ec00ffffffffffffffffffffffffffffffff0d
:1007fc00fffffffffffffffffffffffffffffffffd
:10080c00ffffffffffffffffffffffffffffffffec
:10081c00ffffffffdef79ee71cc7598e7655b75dcd
:10082c009a9e5dcfbee7dff7ffffffffffffffffe5
:10083c00ffffffffffffffffffffffffffffffffbc
:10084c00ffffffffffffffffffffffffffffffffac
:10085c00ffffffffffffffffffffffffffffffff9c
:10086c00ffffffffffffffffffffffffffffffff8c
:10087c00ffffffffffffffffffffffffffffffff7c
:10088c00ffffffffffffffffffffffffffffffff6c
:10089c00ffffffffffffffffffffffffffffffff5c
:1008ac00ffffffffffffffffffffffffffffffff4c
:1008bc00ffffffffffffffffffffffffffffffff3c
:1008cc00ffffffffffffffffffffffffffffffff2c
:1008dc00ffffffffffffffffffffffffffffffff1c
:1008ec00ffffffffffffffffffffffffffffffff0c
:1008fc00fffffffffffffffffffffffffffffffffc
:10090c00ffffffffffffffffffffffffffffffffeb
:10091c00ffffffffffffffffffffffffffffffffdb
:10092c00ffffffffffffffffffffffffffffffffcb
:10093c00ffffffffffffffffffffffffffffffffbb
:10094c00ffffffffffffffffffffffffffffffffab
:10095c00ffffffffffffffffffffffffffffffff9b
:10096c00ffffdff77ddf1cbf598e764dd424931427
:10097c00730c730c9314f52cb7659a9e3ccf9ee7c1
:10098c00dff7ffffffffffffffffffffffffffff93
:10099c00ffffffffffffffffffffffffffffffff5b
:1009ac00ffffffffffffffffffffffffffffffff4b
:1009bc00ffffffffffffffffffffffffffffffff3b
:1009cc00ffffffffffffffffffffffffffffffff2b
:1009dc00ffffffffffffffffffffffffffffffff1b
:1009ec00ffffffffffffffffffffffffffffffff0b
:1009fc00fffffffffffffffffffffffffffffffffb
:100a0c00ffffffffffffffffffffffffffffffffea
:100a1c00ffffffffffffffffffffffffffffffffda
:100a2c00ffffffffffffffffffffffffffffffffca
:100a3c00ffffffffffffffffffffffffffffffffba
:100a4c00ffffffffffffffffffffffffffffffffaa
:100a5c00ffffffffffffffffffffffffffffffff9a
:100a6c00ffffffffffffffffffffffffffffffff8a
:100a7c00ffffffffffffffffffffffffffffffff7a
:100a8c00ffffffffffffffffffffffffffffffff6a
:100a9c00ffffffffffffffffffffffffffffffff5a
:100aac00ffffffffffffffffffffffffffffffff4a
:100abc00dff77ddffbb6598e9755d424930c730466
:100acc00520452045204520452045204730c9314f0
:100adc00f52cb7659a9e1cc79ee7ffffffffffff33
:100aec00ffffffffffffffffffffffffffffffff0a
:100afc00fffffffffffffffffffffffffffffffffa
:100b0c00ffffffffffffffffffffffffffffffffe9
:100b1c00ffffffffffffffffffffffffffffffffd9
:100b2c00ffffffffffffffffffffffffffffffffc9
:100b3c00ffffffffffffffffffffffffffffffffb9
:100b4c00ffffffffffffffffffffffffffffffffa9
:100b5c00ffffffffffffffffffffffffffffffff99
:100b6c00ffffffffffffffffffffffffffffffff89
:100b7c00ffffffffffffffffffffffffffffffff79
:100b8c00ffffffffffffffffffffffffffffffff69
:100b9c00ffffffffffffffffffffffffffffffff59
:100bac00ffffffffffffffffffffffffffffffff49
:100bbc00ffffffffffffffffffffffffffffffff39
:100bcc00ffffffffffffffffffffffffffffffff29
:100bdc00ffffffffffffffffffffffffffffffff19
:100bec00ffffffffffffffffffffffffffffffff09
:100bfc00ffffffffffffffffffffffffffffdff721
:100c0c009edffbb639869755f42c730c7304520493
:100c1c005204520452045204520452045204520418
:100c2c00520452045204730493141535b7657a9622
:100c3c001cbfbeefffffffffffffffffffffffff2c
:100c4c00ffffffffffffffffffffffffffffffffa8
:100c5c00ffffffffffffffffffffffffffffffff98
:100c6c00ffffffffffffffffffffffffffffffff88
:100c7c00ffffffffffffffffffffffffffffffff78
:100c8c00ffffffffffffffffffffffffffffffff68
:100c9c00ffffffffffffffffffffffffffffffff58
:100cac00ffffffffffffffffffffffffffffffff48
:100cbc00ffffffffffffffffffffffffffffffff38
:100ccc00ffffffffffffffffffffffffffffffff28
:100cdc00ffffffffffffffffffffffffffffffff18
:100cec00ffffffffffffffffffffffffffffffff08
:100cfc00fffffffffffffffffffffffffffffffff8
:100d0c00ffffffffffffffffffffffffffffffffe7
:100d1c00ffffffffffffffffffffffffffffffffd7
:100d2c00ffffffffffffffffffffffffffffffffc7
:100d3c00ffffffffffffffffffffffffffffffffb7
:100d4c00ffffffffffffffffffffffffdff79ee748
:100d5c00fbb6197e7655f52c930c520452045204b2
:100d6c0052045204520452045204520452045204c7
:100d7c0052045204520452045204520452045204b7
:100d8c00730493141535975d598e3cc7beefdff78e
:100d9c00ffffffffffffffffffffffffffffffff57
:100dac00ffffffffffffffffffffffffffffffff47
:100dbc00ffffffffffffffffffffffffffffffff37
:100dcc00ffffffffffffffffffffffffffffffff27
:100ddc00ffffffffffffffffffffffffffffffff17
:100dec00ffffffffffffffffffffffffffffffff07
:100dfc00fffffffffffffffffffffffffffffffff7
:100e0c00ffffffffffffffffffffffffffffffffe6
:100e1c00ffffffffffffffffffffffffffffffffd6
:100e2c00ffffffffffffffffffffffffffffffffc6
:100e3c00ffffffffffffffffffffffffffffffffb6
:100e4c00ffffffffffffffffffffffffffffffffa6
:100e5c00ffffffffffffffffffffffffffffffff96
:100e6c00ffffffffffffffffffffffffffffffff86
:100e7c00ffffffffffffffffffffffffffffffff76
:100e8c00ffffffffffffffffffffffffffffffff66
:100e9c00ffffffffffffffffffffdef79ee71cbf1b
:100eac00397e564df42c931473045204520452049c
:100ebc005204520452045204520452045204731c3d
:100ecc00933c93347314520452045204520452044b
:100edc00520452045204520452047304b31c1535c8
:100eec0097557a963ccfbeefdff7ffffffffffff72
:100efc00fffffffffffffffffffffffffffffffff6
:100f0c00ffffffffffffffffffffffffffffffffe5
:100f1c00ffffffffffffffffffffffffffffffffd5
:100f2c00ffffffffffffffffffffffffffffffffc5
:100f3c00ffffffffffffffffffffffffffffffffb5
:100f4c00ffffffffffffffffffffffffffffffffa5
:100f5c00ffffffffffffffffffffffffffffffff95
:100f6c00ffffffffffffffffffffffffffffffff85
:100f7c00ffffffffffffffffffffffffffffffff75
:100f8c00ffffffffffffffffffffffffffffffff65
:100f9c00ffffffffffffffffffffffffffffffff55
:100fac00ffffffffffffffffffffffffffffffff45
:100fbc00ffffffffffffffffffffffffffffffff35
:100fcc00ffffffffffffffffffffffffffffffff25
:100fdc00ffffffffffffffffffffffffffffffff15
:100fec00ffffffffffffffffdeef9ddf1cbf39861a
:100ffc00564dd424931473045204520452045204d4
:10100c00520452045204520452045204731cb3444a
:10101c001565968559ae18a6567df45c933c7314f1
:10102c005204520452045204520452045204520404
:10103c0052045204730cb314f42c975d7a963ccf83
:10104c009ee7dff7ffffffffffffffffffffffff45
:10105c00ffffffffffffffffffffffffffffffff94
:10106c00ffffffffffffffffffffffffffffffff84
:10107c00ffffffffffffffffffffffffffffffff74
:10108c00ffffffffffffffffffffffffffffffff64
:10109c00ffffffffffffffffffffffffffffffff54
:1010ac00ffffffffffffffffffffffffffffffff44
:1010bc00ffffffffffffffffffffffffffffffff34
:1010cc00ffffffffffffffffffffffffffffffff24
:1010dc00ffffffffffffffffffffffffffffffff14
:1010ec00ffffffffffffffffffffffffffffffff04
:1010fc00fffffffffffffffffffffffffffffffff4
:10110c00ffffffffffffffffffffffffffffffffe3
:10111c00ffffffffffffffffffffffffffffffffd3
:10112c00ffffffffffffffffffffffffffffffffc3
:10113c00ffffffffffffdff77ddffcbe598e764d13
:10114c00d424930c730452045204520452045204d7
:10115c00520452045204520452047314b444356db4
:10116c00b7957ab63cdfbeefdff7def79eeffbd626
:10117c0039ae968515659334520c520452045204c0
:10118c005204520452045204520452045204730c7a
:10119c009314f42cb75d9a9e3cc79edfdff7ffffdc
:1011ac00ffffffffffffffffffffffffffffffff43
:1011bc00ffffffffffffffffffffffffffffffff33
:1011cc00ffffffffffffffffffffffffffffffff23
:1011dc00ffffffffffffffffffffffffffffffff13
:1011ec00ffffffffffffffffffffffffffffffff03
:1011fc00fffffffffffffffffffffffffffffffff3
:10120c00ffffffffffffffffffffffffffffffffe2
:10121c00ffffffffffffffffffffffffffffffffd2
:10122c00ffffffffffffffffffffffffffffffffc2
:10123c00ffffffffffffffffffffffffffffffffb2
:10124c00ffffffffffffffffffffffffffffffffa2
:10125c00ffffffffffffffffffffffffffffffff92
:10126c00ffffffffffffffffffffffffffffffff82
:10127c00ffffffffffffffffffffffffffffffff72
:10128c00ffffffffdff77ddfdbb639867655d42411
:10129c00730c730452045204520452045204520448
:1012ac00520452045204520c731cb3445575d89d0d
:1012bc009abe3cdfbeefdfffffffffffdef7dff77d
:1012cc00ffffffffdff79eeffcd659b6b79515650c
:1012dc0093347314520c52045204520452045204a8
:1012ec0052045204520452047304930cf52cb76547
:1012fc007a961cbf9ee7ffffffffffffffffffff7c
:10130c00ffffffffffffffffffffffffffffffffe1
:10131c00ffffffffffffffffffffffffffffffffd1
:10132c00ffffffffffffffffffffffffffffffffc1
:10133c00ffffffffffffffffffffffffffffffffb1
:10134c00ffffffffffffffffffffffffffffffffa1
:10135c00ffffffffffffffffffffffffffffffff91
:10136c00ffffffffffffffffffffffffffffffff81
:10137c00ffffffffffffffffffffffffffffffff71
:10138c00ffffffffffffffffffffffffffffffff61
:10139c00ffffffffffffffffffffffffffffffff51
:1013ac00ffffffffffffffffffffffffffffffff41
:1013bc00ffffffffffffffffffffffffffffffff31
:1013cc00ffffffffffffffffffffffffffffffff21
:1013dc00ffffdff77ddfdbb6397e7655f424730c27
:1013ec007304520452045204520452045204520420
:1013fc005204520473147324933c567518a6bbc63e
:10140c003cdfbeefffffffffffffbef75ddfbbc69c
:10141c0039ae59b6fbce7de7dff7ffffffffdfffed
:10142c009eef1cd77abed79515659334731c720c3e
:10143c0052045204520452045204520452045204f0
:10144c005204730493141535b75d598e1cbfbee757
:10145c00fff7ffffffffffffffffffffffffffff98
:10146c00ffffffffffffffffffffffffffffffff80
:10147c00ffffffffffffffffffffffffffffffff70
:10148c00ffffffffffffffffffffffffffffffff60
:10149c00ffffffffffffffffffffffffffffffff50
:1014ac00ffffffffffffffffffffffffffffffff40
:1014bc00ffffffffffffffffffffffffffffffff30
:1014cc00ffffffffffffffffffffffffffffffff20
:1014dc00ffffffffffffffffffffffffffffffff10
:1014ec00ffffffffffffffffffffffffffffffff00
:1014fc00fffffffffffffffffffffffffffffffff0
:10150c00ffffffffffffffffffffffffffffffffdf
:10151c00ffffffffffffffffffffffffffffffffcf
:10152c00dff79ee7fbb6187e764df42c930c520435
:10153c0052045204520452045204520452045204ef
:10154c0052047314932cb444357518a6dbce5ddfae
:10155c00beefffffffffdfffbef75ddfbabef89dfa
:10156c00567dd44c731c732cf45c768518a6dbce9c
:10157c007de7def7ffffffffdff79eef3cdfbabe34
:10158c00d7951565933c7324720c52045204520483
:10159c00520452045204520452045204730493141d
:1015ac0015359755598e3cc7beefdff7ffffffff90
:1015bc00ffffffffffffffffffffffffffffffff2f
:1015cc00ffffffffffffffffffffffffffffffff1f
:1015dc00ffffffffffffffffffffffffffffffff0f
:1015ec00ffffffffffffffffffffffffffffffffff
:1015fc00ffffffffffffffffffffffffffffffffef
:10160c00ffffffffffffffffffffffffffffffffde
:10161c00ffffffffffffffffffffffffffffffffce
:10162c00ffffffffffffffffffffffffffffffffbe
:10163c00ffffffffffffffffffffffffffffffffae
:10164c00ffffffffffffffffffffffffffffffff9e
:10165c00ffffffffffffffffffffffffffffffff8e
:10166c00ffffffffffffffffffffffffffffdeefaf
:10167c009edffcbe197e5645d42493147304520489
:10168c00520452045204520452045204520452049e
:10169c0073149334d454357518a6fbce7de7bef77e
:1016ac00dfffffffdff7bef75ddf9abed795356d25
:1016bc00d44c732452045204520452045204520463
:1016cc009334f45c567df8a5dbce7de7bef7dfffe7
:1016dc00ffffdff79eef5ddfbbc6d7951565b44cfa
:1016ec00732c520c520452045204520452045204ed
:1016fc005204520452047304b314f52c7655598ecb
:10170c003cc7bee7dff7ffffffffffffffffffff59
:10171c00ffffffffffffffffffffffffffffffffcd
:10172c00ffffffffffffffffffffffffffffffffbd
:10173c00ffffffffffffffffffffffffffffffffad
:10174c00ffffffffffffffffffffffffffffffff9d
:10175c00ffffffffffffffffffffffffffffffff8d
:10176c00ffffffffffffffffffffffffffffffff7d
:10177c00ffffffffffffffffffffffffffffffff6d
:10178c00ffffffffffffffffffffffffffffffff5d
:10179c00ffffffffffffffffffffffffffffffff4d
:1017ac00ffffffffffffffffffffffffffffffff3d
:1017bc00ffffffffffffffffffffffffdeef7ddf00
:1017cc001cbf39865645d424931473045204520416
:1017dc005204520452045204520452045204520c45
:1017ec009334f45c567d18a6fbce9defbef7dfff5d
:1017fc00ffffdff79eef5ddf9abeb7951565b4442a
:10180c00732452045204520452047324b444b34457
:10181c00731c520452045204730c9334d44c356d23
:10182c00f89ddbce7de7beefdfffffffdff7bef7f6
:10183c007de7bbc6d89d3575d4547324520452042d
:10184c0052045204520452045204520452045204dc
:10185c00730c9314f42497557a963cc79edfdff7ec
:10186c00ffffffffffffffffffffffffffffffff7c
:10187c00ffffffffffffffffffffffffffffffff6c
:10188c00ffffffffffffffffffffffffffffffff5c
:10189c00ffffffffffffffffffffffffffffffff4c
:1018ac00ffffffffffffffffffffffffffffffff3c
:1018bc00ffffffffffffffffffffffffffffffff2c
:1018cc00ffffffffffffffffffffffffffffffff1c
:1018dc00ffffffffffffffffffffffffffffffff0c
:1018ec00fffffffffffffffffffffffffffffffffc
:1018fc00ffffffffffffffffffffffffffffffffec
:10190c00ffffffffffffffffffffdff77dd7fbb6fa
:10191c003986764db41c930c730452045204520451
:10192c00520452045204520452045204520c932c8a
:10193c001565968539aefbce9defdff7fffffffff8
:10194c00dff79def3cdf9abeb795f45c933c7324b4
:10195c00520c52045204520452045204933c978d7c
:10196c007abe7ab67685932c5204520452045204f1
:10197c0052047314732cb344356df89dbbc65ddff4
:10198c009eefffffffffdfffdef75de7bbc6f89db5
:10199c00767dd4547324520c5204520452045204d3
:1019ac0052045204520452045204730c9314f4243f
:1019bc00975d7a961cbf9edfdff7ffffffffffffef
:1019cc00ffffffffffffffffffffffffffffffff1b
:1019dc00ffffffffffffffffffffffffffffffff0b
:1019ec00fffffffffffffffffffffffffffffffffb
:1019fc00ffffffffffffffffffffffffffffffffeb
:101a0c00ffffffffffffffffffffffffffffffffda
:101a1c00ffffffffffffffffffffffffffffffffca
:101a2c00ffffffffffffffffffffffffffffffffba
:101a3c00ffffffffffffffffffffffffffffffffaa
:101a4c00ffffffffffffffffffffffffffffffff9a
:101a5c00ffffffffffffffffdff77dd7dbae398610
:101a6c00764dd424730c7304520452045204520461
:101a7c005204520452045204520c7314932c1565e4
:101a8c00b78d59b6fbce7de7dff7ffffffffdff722
:101a9c007de71cd77ab6b795f55c932c731c520c6a
:101aac005204520452045204520452045204731449
:101abc00978d5de7ffffdfff3cdf567d720c520414
:101acc0052045204520452045204520473147324e8
:101adc00933c356df89d9abe3cdf9eeffffffffff8
:101aec00ffffdef75de7dbc639ae7685d454732491
:101afc0073145204520452045204520452045204f9
:101b0c00520452047304930cf52cb75d598efcbe31
:101b1c009ee7fff7ffffffffffffffffffffffff4a
:101b2c00ffffffffffffffffffffffffffffffffb9
:101b3c00ffffffffffffffffffffffffffffffffa9
:101b4c00ffffffffffffffffffffffffffffffff99
:101b5c00ffffffffffffffffffffffffffffffff89
:101b6c00ffffffffffffffffffffffffffffffff79
:101b7c00ffffffffffffffffffffffffffffffff69
:101b8c00ffffffffffffffffffffffffffffffff59
:101b9c00ffffffffffffffffffffffffffffffff49
:101bac00ffffffffffffdff77ddfdbae187e764d1b
:101bbc00d424730c5204520452045204520452049e
:101bcc00520452045204520c73249334f55cb795ae
:101bdc007abe1cd79de7dff7ffffffffdff79def16
:101bec00fbce59aeb78d1565732c7314520c520481
:101bfc005204520452045204520452045204520429
:101c0c005204731c59b6dff7ffffffffbeef18a697
:101c1c0073145204520452045204520452045204d7
:101c2c00520452045204520c7314933c356dd795e4
:101c3c007ab61cd7beefdfffffffffffdef77de7b5
:101c4c00fbce59b67685d44c732c731c52045204bb
:101c5c0052045204520452045204520452047304a7
:101c6c0093141535975d39861cbfbee7dff7ffff70
:101c7c00ffffffffffffffffffffffffffffffff68
:101c8c00ffffffffffffffffffffffffffffffff58
:101c9c00ffffffffffffffffffffffffffffffff48
:101cac00ffffffffffffffffffffffffffffffff38
:101cbc00ffffffffffffffffffffffffffffffff28
:101ccc00ffffffffffffffffffffffffffffffff18
:101cdc00ffffffffffffffffffffffffffffffff08
:101cec00fffffffffffffffffffffffffffffffff8
:101cfc00ffffffffdef79ee7dbb6f8755645d424f1
:101d0c00930c5204520452045204520452045204ce
:101d1c0052045204520c7324b344f45cb7959abe2b
:101d2c003cdf9eefdff7ffffffffdef79deffbce03
:101d3c0039a67685f5649334520452045204520445
:101d4c0052045204520452045204520452045204d7
:101d5c00520452045204731439aebef7ffffffff56
:101d6c009eeff89d73145204520452045204520410
:101d7c0052045204520452045204520452045204a7
:101d8c005204730cb33c156d978d59b61cd7beef2e
:101d9c00dff7ffffffffbef77de71cd759b676854f
:101dac00d454933c731c52045204520452045204f3
:101dbc00520452045204520473049314f52c7655b5
:101dcc0039861cc7bee7dff7fffffffffffffffff2
:101ddc00ffffffffffffffffffffffffffffffff07
:101dec00fffffffffffffffffffffffffffffffff7
:101dfc00ffffffffffffffffffffffffffffffffe7
:101e0c00ffffffffffffffffffffffffffffffffd6
:101e1c00ffffffffffffffffffffffffffffffffc6
:101e2c00ffffffffffffffffffffffffffffffffb6
:101e3c00ffffffffffffffffffffffffffffffffa6
:101e4c00ffffbeef7ddffcb6187e5645d4249314fd
:101e5c0073045204520452045204520452045204a5
:101e6c00520452047324b44c1565b7959abe5ddfc9
:101e7c009eefdff7ffffdfffbef77de7fbce18a677
:101e8c00567df45c9334520c5204520452045204a6
:101e9c005204520452045204520452045204520486
:101eac0052045204520452045204520c156ddbceef
:101ebc009eef9eefbac6f45c520c520452045204cc
:101ecc005204520452045204520452045204520456
:101edc005204520452045204520452047314b34474
:101eec00f564768559b61cd79eefdef7ffffffff32
:101efc00def79eef3cdf59b69685f45cb344731c59
:101f0c005204520452045204520452045204520415
:101f1c00520473049314f42c764d598e3cc79ee7ef
:101f2c00dff7ffffffffffffffffffffffffffffdd
:101f3c00ffffffffffffffffffffffffffffffffa5
:101f4c00ffffffffffffffffffffffffffffffff95
:101f5c00ffffffffffffffffffffffffffffffff85
:101f6c00ffffffffffffffffffffffffffffffff75
:101f7c00ffffffffffffffffffffffffffffffff65
:101f8c00ffffffffffffffffffffffffffffffff55
:101f9c00beef7dd7fbb6397e5645b41c930c73044b
:101fac005204520452045204520452045204520475
:101fbc0052047324d44c5575d7959abe5ddfbef789
:101fcc00dff7ffffffffbeef7de7dbce18a6357511
:101fdc00d44c9334731452045204520452045204d9
:101fec005204520452045204520452045204520435
:101ffc005204520452045204520452045204520425
:10200c00731cf454978d9685d44c7314520452045b
:10201c005204520452045204520452045204520404
:10202c0052045204520452045204520452045204f4
:10203c00520452045204731c933cd454768559b602
:10204c001cd77de7bef7ffffffffdff7beef3cdfde
:10205c0079b6978d156db34473145204520452041f
:10206c00520452045204520452045204730c93143a
:10207c00d42476557a961cc77ddfdff7ffffffff70
:10208c00ffffffffffffffffffffffffffffffff54
:10209c00ffffffffffffffffffffffffffffffff44
:1020ac00ffffffffffffffffffffffffffffffff34
:1020bc00ffffffffffffffffffffffffffffffff24
:1020cc00ffffffffffffffffffffffffffffffff14
:1020dc00ffffffffffffffffffffffffffffdff72c
:1020ec005dd7dbae3986564db41c730c73045204a9
:1020fc005204520452045204520452045204520c1c
:10210c00731cd44c567df89dbac65ddfdef7dfff3d
:10211c00ffffffffbeef5cdfdbc618a63575b344cf
:10212c00732c731452045204520452045204520479
:10213c0052045204520452045204520452045204e3
:10214c0052045204520452045204520452045204d3
:10215c00520452045204520c731c731c5204520449
:10216c0052045204520452045204520452045204b3
:10217c0052045204520452045204520452045204a3
:10218c005204520452045204520452045204520493
:10219c00731c9334d44c768559aefbce5de7bef7f9
:1021ac00ffffffffdfffbeef3cdf7ab6d79535753b
:1021bc00b33c7314520c5204520452045204520491
:1021cc005204520452047304930cd424975d5a8e17
:1021dc00fcbe7ddfdff7ffffffffffffffffffff11
:1021ec00fffffffffffffffffffffffffffffffff3
:1021fc00ffffffffffffffffffffffffffffffffe3
:10220c00ffffffffffffffffffffffffffffffffd2
:10221c00ffffffffffffffffffffffffffffffffc2
:10222c00ffffffffffffffffffffffffdff77dd784
:10223c00bbae187e764dd424730c73045204520436
:10224c005204520452045204520452047314732460
:10225c00d44c768539aedbc65ddfbef7ffffffffe2
:10226c00ffffbeef3cdf9abef89d5575933c73247f
:10227c007314520452045204520452045204520471
:10228c005204520452045204520452045204520492
:10229c005204520452045204520452045204520482
:1022ac005204520452045204520452045204520472
:1022bc005204520452045204520452045204520462
:1022cc005204520452045204520452045204520452
:1022dc005204520452045204520452045204520442
:1022ec005204520452045204520473147324d44cf6
:1022fc00768539aedbc65ddfdef7ffffffffffff44
:10230c00beef3cdf9abef89d3575933c731c73147d
:10231c005204520452045204520452045204520401
:10232c007304930cf52c975d598efbb69ee7dff783
:10233c00ffffffffffffffffffffffffffffffffa1
:10234c00ffffffffffffffffffffffffffffffff91
:10235c00ffffffffffffffffffffffffffffffff81
:10236c00ffffffffffffffffffffffffffffffff71
:10237c00ffffffffffffffffffffdff77ddfdbaea0
:10238c00f875564dd424730c520452045204520462
:10239c0052045204520452045204731c932cd44c15
:1023ac00767d59aefbce5de7bef7ffffffffdfff8b
:1023bc00beef3cdf7abed7953575b3447314520c1f
:1023cc005204520452045204520452045204520451
:1023dc005204520452045204520452045204520441
:1023ec005204520452045204520452045204520431
:1023fc005204520452045204520452045204520421
:10240c005204520452045204520452045204520410
:10241c005204520452045204520452045204520400
:10242c0052045204520452045204520452045204f0
:10243c0052045204520452045204520452045204e0
:10244c0052045204520c731cd44c567df8a5bac6d7
:10245c005ddfdef7dfffffffffffbeef3cdfdbc61c
:10246c0018a6356db344732c7314520452045204e1
:10247c005204520452045204520473049314f52c63
:10248c0076553986fcbe9ee7dff7ffffffffffffa7
:10249c00ffffffffffffffffffffffffffffffff40
:1024ac00ffffffffffffffffffffffffffffffff30
:1024bc00ffffffffffffffffffffffffffffffff20
:1024cc00ffffffffffffffffdeef9ddfdbb6f875c1
:1024dc005645d424930c5204520452045204520410
:1024ec005204520452045204731c933cd454767d0f
:1024fc0059ae1cd77de7bef7ffffffffdff7beef3e
:10250c003cdf7ab6978d356db44473145204520483
:10251c0052045204520452045204520452045204ff
:10252c0052045204520452045204520452045204ef
:10253c0052045204520452045204520452045204df
:10254c0052045204520452045204520452045204cf
:10255c0052045204520452045204520452045204bf
:10256c0052045204520452045204520452045204af
:10257c00520452045204520452045204520452049f
:10258c00520452045204520452045204520452048f
:10259c00520452045204520452045204520452047f
:1025ac007324d4545575d7959abe5de7bef7dff703
:1025bc00ffffffffbeef5de7dbce18a6356db44c19
:1025cc0093347314520452045204520452045204ad
:1025dc005204520473049314f42c764d39861cbfa8
:1025ec009ee7dff7ffffffffffffffffffffffff90
:1025fc00ffffffffffffffffffffffffffffffffdf
:10260c00ffffffffffffffffffffffffffffffffce
:10261c00ffffffffffffbeef7ddffbb61876353dfa
:10262c00d41c930c730452045204520452045204ea
:10263c005204520452047314b344f564768559b6ab
:10264c001cd79eefdef7ffffffffdef79eef3cdfb0
:10265c0079b69685f45cb344731c5204520452044c
:10266c0052045204520452045204520452045204ae
:10267c00520452045204520452045204520452049e
:10268c00520452045204520452045204520452048e
:10269c00520452045204520452045204520452047e
:1026ac00520452045204520452045204520452046e
:1026bc00520452045204520452045204520452045e
:1026cc00520452045204520452045204520452044e
:1026dc00520452045204520452045204520452043e
:1026ec00520452045204520452045204520452042e
:1026fc00520452045204520452047324b44c156d07
:10270c00d795babe5ddfbeefdff7ffffdfffbef789
:10271c007de7fbce18a6567df45c9334720c520404
:10272c0052045204520452045204520452047304cc
:10273c009314d424764d598e1cc79edfdef7ffff11
:10274c00ffffffffffffffffffffffffffffffff8d
:10275c00ffffffffffffffffffffffffffffffff7d
:10276c00ffffffffbeef5dd7dbb6197e5645b41ced
:10277c00930c730452045204520452045204520433
:10278c0052045204730c933c156d978d59b61cd79b
:10279c00beefdff7ffffffffdef77de71cd779b653
:1027ac009685d454933c731c520452045204520424
:1027bc00520452045204520452045204520452045d
:1027cc00520452045204520452045204520452044d
:1027dc00520452045204520452045204520452043d
:1027ec00520452045204520452045204520452042d
:1027fc00520452045204520452045204520452041d
:10280c00520452045204520452045204520452040c
:10281c0052045204520452045204520452045204fc
:10282c0052045204520452045204520452045204ec
:10283c0052045204520452045204520452045204dc
:10284c0052045204520452045204520452045204cc
:10285c005204520c7324b344f55cd7959abe3cdffa
:10286c009eefdff7ffffffffdef79deffbce18a615
:10287c007685f45c9334520452045204520452048c
:10288c00520452045204520473049314d424765503
:10289c00598e1cbf7ddfdff7ffffffffffffffff40
:1028ac00ffffffffffffffffffffffffffffffff2c
:1028bc00ffffdff75dd7bbae197e564db41c730c12
:1028cc00730452045204520452045204520452042b
:1028dc00520c73149334356dd7957ab61cd7beef62
:1028ec00dfffffffffffdef77de7fbce59b69685d6
:1028fc00d454732c731c52045204520452045204c8
:10290c00520452045204520452045204520452040b
:10291c0052045204520452045204520452045204fb
:10292c0052045204520452045204520452045204eb
:10293c0052045204520452045204520452045204db
:10294c0052045204520452045204520452045204cb
:10295c0052045204520452045204520452045204bb
:10296c0052045204520452045204520452045204ab
:10297c00520452045204520452045204520452049b
:10298c00520452045204520452045204520452048b
:10299c00520452045204520452045204520452047b
:1029ac00520452045204520452045204520c732422
:1029bc009334f55cd7957abe1cd79defdff7fffffc
:1029cc00ffffdff77de7fbce59ae978df564732cd7
:1029dc007314520c52045204520452045204520402
:1029ec0052047304930cd4249755598efbb67ddf97
:1029fc00fff7ffffffffffffffffffffffffffffe3
:102a0c00ffffffffdff7fbb67655d424730c73047e
:102a1c005204520452045204520452045204730cd1
:102a2c007324933c356df89d9abe3cdf9eefffffff
:102a3c00ffffffffdef75de7dbc639ae7685d454ca
:102a4c007324731452045204520452045204520458
:102a5c0052045204520452045204520452045204ba
:102a6c0052045204520452045204520452045204aa
:102a7c00520452045204520452045204520452049a
:102a8c00520452045204520452045204520452048a
:102a9c00520452045204520452045204520452047a
:102aac00520452045204520452045204520452046a
:102abc00520452045204520452045204520452045a
:102acc00520452045204520452045204520452044a
:102adc00520452045204520452045204520452043a
:102aec00520452045204520452045204520452042a
:102afc00520452045204520452045204520452041a
:102b0c00520452045204520c7314932c1565b7954d
:102b1c0059b6fbce9defdff7ffffffffdff77de739
:102b2c00fcd67ab6b795f45c932c731c520c5204f9
:102b3c005204520452045204520452047304730c8f
:102b4c00f42cb7657ddfffffffffffffffffffffeb
:102b5c00ffffffffffffffffdff79a9e9314520466
:102b6c005204520452045204520452047314732c2f
:102b7c00b344356df89dbbc65cdf9eefffffffffd6
:102b8c00dfffdef77de7bbc6f8a5767dd454732452
:102b9c00520c520452045204520452045204520471
:102bac005204520452045204520452045204520469
:102bbc005204520452045204520452045204520459
:102bcc005204520452045204520452045204520449
:102bdc005204520452045204520452045204520439
:102bec005204520452045204520452045204520429
:102bfc005204520452045204520452045204520419
:102c0c005204520452045204520452045204520408
:102c1c0052045204520452045204520452045204f8
:102c2c0052045204520452045204520452045204e8
:102c3c0052045204520452045204520452045204d8
:102c4c0052045204520452045204520452045204c8
:102c5c0052045204520452045204520452045204b8
:102c6c005204520c93341565968539aefbce9def0c
:102c7c00dff7ffffffffdff79def3cdf9abeb79555
:102c8c00f45c933c7324520c5204520452045204cc
:102c9c00520452045204d4245dd7ffffffffffff00
:102cac00fffffffffffffffffffffffffffffbb675
:102cbc00b31c5204520452045204730c9334d44c7b
:102ccc00356df89ddbce7de7beefdff7ffffdff75d
:102cdc00bef77de7bbc6d89d3575d454732452041a
:102cec005204520452045204520452045204520428
:102cfc005204520452045204520452045204520418
:102d0c005204520452045204520452045204520407
:102d1c0052045204520452045204520452045204f7
:102d2c0052045204520452045204520452045204e7
:102d3c0052045204520452045204520452045204d7
:102d4c0052045204520452045204520452045204c7
:102d5c0052045204520452045204520452045204b7
:102d6c0052045204520452045204520452045204a7
:102d7c005204520452045204520452045204520497
:102d8c005204520452045204520452045204520487
:102d9c005204520452045204520452045204520477
:102dac005204520452045204520452045204520467
:102dbc00520452045204520452045204520c9334de
:102dcc00f45c567d18a6fbce9defbef7dfffffff30
:102ddc00dff79eef5ddf9abeb7951565b44473249b
:102dec005204520452045204730415357ddfffff64
:102dfc00ffffffffffffffffffffffffffffffffd7
:102e0c00ffff3ccfb41c5204520452045204933cb6
:102e1c00d795dbce7de7bef7dfffffffdff79eef39
:102e2c005ddfbbc6d895156db44c732c520c520497
:102e3c0052045204520452045204520452045204d6
:102e4c0052045204520452045204520452045204c6
:102e5c0052045204520452045204520452045204b6
:102e6c0052045204520452045204520452045204a6
:102e7c005204520452045204520452045204520496
:102e8c005204520452045204520452045204520486
:102e9c005204520452045204520452045204520476
:102eac005204520452045204520452045204520466
:102ebc005204520452045204520452045204520456
:102ecc005204520452045204520452045204520446
:102edc005204520452045204520452045204520436
:102eec005204520452045204520452045204520426
:102efc005204520452045204520452045204520416
:102f0c005204520452045204520452045204520405
:102f1c0052045204520473149334d454567518a6a4
:102f2c00fbce7de7bef7ffffffffdff7bef75ddff0
:102f3c009abe767d732c5204520452047304564587
:102f4c009edfffffffffffffffffffffffffffff06
:102f5c00ffffffffffff7dd7f424520452045204fd
:102f6c005204f5641cd7dff7ffffdff79eef3cdf61
:102f7c00bac6d8951565933c732c720c5204520446
:102f8c005204520452045204520452045204520485
:102f9c005204520452045204520452045204520475
:102fac005204520452045204520452045204520465
:102fbc005204520452045204520452045204520455
:102fcc005204520452045204520452045204520445
:102fdc005204520452045204520452045204520435
:102fec005204520452045204520452045204520425
:102ffc005204520452045204520452045204520415
:10300c005204520452045204520452045204520404
:10301c0052045204520452045204520452045204f4
:10302c0052045204520452045204520452045204e4
:10303c0052045204520452045204520452045204d4
:10304c0052045204520452045204520452045204c4
:10305c0052045204520452045204520452045204b4
:10306c0052045204520452045204520452045204a4
:10307c007314932cb444357518a6dbce5ddfbeef0c
:10308c00ffffffffdff77ab6b44c52045204520430
:10309c00730c975d9ee7ffffffffffffffffffff36
:1030ac00ffffffffffffffffffff7ddf353d7304d9
:1030bc00520452045204f45cfbceffffbef7bbc6b5
:1030cc00d795156593347324720c52045204520430
:1030dc005204520452045204520452045204520434
:1030ec005204520452045204520452045204520424
:1030fc005204520452045204520452045204520414
:10310c005204520452045204520452045204520403
:10311c0052045204520452045204520452045204f3
:10312c0052045204520452045204520452045204e3
:10313c0052045204520452045204520452045204d3
:10314c0052045204520452045204520452045204c3
:10315c0052045204520452045204520452045204b3
:10316c0052045204520452045204520452045204a3
:10317c005204520452045204520452045204520493
:10318c005204520452045204520452045204520483
:10319c005204520452045204520452045204520473
:1031ac005204520452045204520452045204520463
:1031bc005204520452045204520452045204520453
:1031cc005204520452045204520473147324933c58
:1031dc00567518a61cd7ffffdfff39ae933c52047f
:1031ec0052045204730cf86dbeefffffffffffff9c
:1031fc00ffffffffffffffffffffffffffff9ee74c
:10320c0076557304520452045204d454bbc6ffffc7
:10321c009de796857314520c5204520452045204c6
:10322c0052045204520452045204520452045204e2
:10323c0052045204520452045204520452045204d2
:10324c0052045204520452045204520452045204c2
:10325c0052045204520452045204520452045204b2
:10326c0052045204520452045204520452045204a2
:10327c005204520452045204520452045204520492
:10328c005204520452045204520452045204520482
:10329c005204520452045204520452045204520472
:1032ac005204520452045204520452045204520462
:1032bc005204520452045204520452045204520452
:1032cc005204520452045204520452045204520442
:1032dc005204520452045204520452045204520432
:1032ec005204520452045204520452045204520422
:1032fc005204520452045204520452045204520412
:10330c005204520452045204520452045204520401
:10331c0052045204520452045204520452045204f1
:10332c0052045204720c732418a6dfffdffff89dc1
:10333c007324520452045204730c3986deefffffdf
:10334c00ffffffffffffffffffffffffffffffff81
:10335c00ffffbee7d86d730c520452045204b34401
:10336c0079b6ffffbeefb78d5204520452045204db
:10337c005204520452045204520452045204520491
:10338c005204520452045204520452045204520481
:10339c005204520452045204520452045204520471
:1033ac005204520452045204520452045204520461
:1033bc005204520452045204520452045204520451
:1033cc005204520452045204520452045204520441
:1033dc005204520452045204520452045204520431
:1033ec005204520452045204520452045204520421
:1033fc005204520452045204520452045204520411
:10340c005204520452045204520452045204520400
:10341c0052045204520452045204520452045204f0
:10342c0052045204520452045204520452045204e0
:10343c0052045204520452045204520452045204d0
:10344c0052045204520452045204520452045204c0
:10345c0052045204520452045204520452045204b0
:10346c0052045204520452045204520452045204a0
:10347c0052045204520452045204933439aeffffe6
:10348c00def7b795730c520452045204930c9a9eb7
:10349c00dff7ffffffffffffffffffffffffffff58
:1034ac00ffffffffffffbeef187e730c52045204a8
:1034bc005204933418a6dfffdff7d795730c520430
:1034cc005204520452045204520452045204520440
:1034dc005204520452045204520452045204520430
:1034ec005204520452045204520452045204520420
:1034fc005204520452045204520452045204520410
:10350c0052045204520452045204520452045204ff
:10351c0052045204520452045204520452045204ef
:10352c0052045204520452045204520452045204df
:10353c0052045204520452045204520452045204cf
:10354c0052045204520452045204520452045204bf
:10355c0052045204520452045204520452045204af
:10356c00520452045204520452045204520452049f
:10357c00520452045204520452045204520452048f
:10358c00520452045204520452045204520452047f
:10359c00520452045204520452045204520452046f
:1035ac00520452045204520452045204520452045f
:1035bc00520452045204520452045204520452044f
:1035cc005204520452045204520452045204b4449d
:1035dc007abeffff9eef96855204520452045204a9
:1035ec009314dbb6ffffffffffffffffffffffffa3
:1035fc00ffffffffffffffffffffdff77a96930c44
:10360c00520452045204731cd795dff7ffff18a61f
:10361c00732c5204520452045204520452045204a5
:10362c00731cb33cd44cd44cd44cd44cd44cd44c50
:10363c00d44cb34473145204520452045204520432
:10364c0052045204520452047314933cd44cd44c80
:10365c00d44cd44cd44cd44cd44cb44473245204d9
:10366c0052047314933cd44cd44cd44cd44cd44c02
:10367c00d44cd44cd44cd44cd44cd44cd44cd44c3e
:10368c00b44c9334730c5204520452045204731c01
:10369c00b33cd44cd44cd44cd44cb44c933c520c82
:1036ac00520452045204520452045204520452045e
:1036bc005204520452045204520452045204720c26
:1036cc009334d44cd44cd44cd44cd44cd44cd44c47
:1036dc00b344731c52045204520452045204520454
:1036ec0052049334d44cd44cd44cd44cd44cd44cf1
:1036fc00d44cd44cd44cd44cd44cd44cd44cb33cef
:10370c00731c52045204520452047324d454f564ae
:10371c00b344730c52045204520452045204520423
:10372c005204d454dbc6ffff7de7567d520452048d
:10373c0052045204b41c1cbfffffffffffffffff2e
:10374c00fffffffffffffffffffffffffffffff785
:10375c00bbae930c5204520452045204978dbef724
:10376c00ffff59b6b33c52045204520452045204a3
:10377c0052045204d45418a69abe9abe9abe9abe4b
:10378c009abe9abe9abe59aeb44c5204520452041c
:10379c00520452045204520452045204933c18a68c
:1037ac009abe9abe9abe9abe9abe9abe9abe59ae9e
:1037bc00156552045204b344d7959abe9abe9abe6c
:1037cc009abe9abe9abe9abe9abe9abe9abe9abe2d
:1037dc009abe9abe9abe39ae9685b444520c520427
:1037ec005204b444f89d9abe9abe9abe9abe9abe32
:1037fc00b7957324520452045204520452045204d6
:10380c0052045204520452045204520452045204fc
:10381c0052049334d7959abe9abe9abe9abe9abe5b
:10382c009abe9abe59aed44c52045204520452045d
:10383c0052045204520c96859abe9abe9abe9abef7
:10384c009abe9abe9abe9abe9abe9abe9abe9abeac
:10385c009abe7ab6d89d1565731c52049334978d15
:10386c0019a639a6d89d1565731452045204520436
:10387c00520452045204f5641cd7ffff3cdf35752b
:10388c005204520452045204f42c3ccfffffffffad
:10389c00ffffffffffffffffffffffffffffffff2c
:1038ac00fffffffffcbe9314520452045204520457
:1038bc0076859defffffbac6d44c520452045204d5
:1038cc00520452045204520435753cd7ffffffffdb
:1038dc00ffffffffffffffffffff9eef767d731cd7
:1038ec005204520452045204520452045204520c14
:1038fc00f5645de7ffffffffffffffffffffffff2b
:10390c00ffff7de7978d52045204d454dbc6ffffb2
:10391c00ffffffffffffffffffffffffffffffffab
:10392c00ffffffffffffffffffffdfff7de739ae6c
:10393c00d44c52045204f45cfbd6dfffffffffffb4
:10394c00ffffdff7bac6732c520452045204520420
:10395c0052045204520452045204520452045204ab
:10396c00520452045204f564fbceffffffffffff2d
:10397c00ffffffffffffffff9eef5675731452040e
:10398c005204520452045204720c59b6ffffffff4a
:10399c00ffffffffffffffffffffffffffffffff2b
:1039ac00ffffffffffffffffbef7dbce567d73244b
:1039bc00567d9abe9abe59aebabef89db44c52040e
:1039cc0052045204520452045204156d5ddfffff81
:1039dc001cd715655204520452047304353d5dd74f
:1039ec00ffffffffffffffffffffffffffffffffdb
:1039fc00ffffffffffffffff3cc7d424520452041c
:103a0c005204520456755ddffffffbcef45c52048a
:103a1c0052045204520452045204520435753cdfd1
:103a2c00ffffffffffffffffffffffffffffdef7c3
:103a3c0019a6932c520452045204520452045204f8
:103a4c005204731c978dbeefffffffffffffffffbc
:103a5c00ffffffffffff7de7978d52045204f454e4
:103a6c00dbc6ffffffffffffffffffffffffffffb7
:103a7c00ffffffffffffffffffffffffffffffff4a
:103a8c00ffff9eeff89d73245204f45c1cd7ffffdc
:103a9c00ffffffffffffdff7bac6732c520452047f
:103aac00520452045204520452045204520452045a
:103abc0052045204520452045204567d5ddfffff3f
:103acc00ffffffffffffffffffffffffdef7d89dac
:103adc00732c52045204520452045204720c59b600
:103aec00ffffffffffffffffffffffffffffffffda
:103afc00ffffffffffffffffffffffffffffdff7f2
:103b0c00dbce156df8a519a6dbcebbc659ae59aeea
:103b1c00156d520452045204520452045204557549
:103b2c009de7ffffdbc6d4545204520452047304c5
:103b3c0076557ddfffffffffffffffffffffffff5e
:103b4c00ffffffffffffffffffffffff5dcf1535ff
:103b5c005204520452045204156d1cd7ffff1cd79b
:103b6c001565520452045204520452045204520475
:103b7c0035753cdfffffffffffffffffffffffff80
:103b8c00ffffdff7dbc6933c52045204520452048d
:103b9c00520452045204932c59aedef7ffffffff80
:103bac00ffffffffffffffffffff7de7978d520435
:103bbc005204f454dbc6ffffffffffffffffffffc4
:103bcc00fffffffffffffffffffffffffffffffff9
:103bdc00ffffffffffffffffdbc6d4545204f45c72
:103bec001cd7ffffffffffffffffdff7bac6732ce9
:103bfc005204520452045204520452045204520409
:103c0c00520452045204520452045204520cb795fa
:103c1c00beeffffffffffffffffffffffffffffff9
:103c2c00dff77ab6933c5204520452045204520405
:103c3c00720c59b6fffffffffffffffffffffffff7
:103c4c00ffffffffffffffffffffffffffffffff78
:103c5c00ffffffff9defb795d79559aebabe18a6db
:103c6c0039ae39ae15655204520452045204520452
:103c7c005204567dbeefffff9abeb3445204520469
:103c8c0052047304b7659ee7ffffffffffffffffc2
:103c9c00ffffffffffffffffffffffffffffffff28
:103cac007dd7564d7304520452045204f45cfbce7f
:103cbc00ffff7de73575520452045204520452043e
:103ccc005204520435753cdfffffffffffffffff7f
:103cdc00ffffffffffffffff5ddfd45452045204d0
:103cec0052045204520452045204933cdbcedfffc4
:103cfc00ffffffffffffffffffffffffffff7de762
:103d0c00978d52045204f454dbc6fffffffffffff4
:103d1c00ffffffffffffffffffffffffffffffffa7
:103d2c00ffffffffffffffffffffffff1cd7156526
:103d3c005204f45c1cd7ffffffffffffffffdff710
:103d4c00bac6732c52045204520452045204520444
:103d5c0052045204520452045204520452045204a7
:103d6c00932c18a6dffffffffffffffffffffffff6
:103d7c00fffffffffffffcd6b44c52045204520469
:103d8c0052045204720c59b6fffffffffffffffff6
:103d9c00ffffffffffffffffffffffffffffffff27
:103dac00ffffffffffffffffbef7f89df5647ab63c
:103dbc0039aeb78d7ab6b78d93345204520452048f
:103dcc0052045204731cb78ddef7ffff59b67324ef
:103ddc005204520452047304187ebeefffffffff1f
:103dec00ffffffffffffffffffffffffffffffffd7
:103dfc00ffffffff9edf975d7304520452045204d1
:103e0c00b44c9abeffff9eef567d520452045204ee
:103e1c00520452045204520435753cdfffffffff7d
:103e2c00ffffffffffffffffffffffff9eef76850a
:103e3c00731c52045204520452045204520cf56482
:103e4c005ddfffffffffffffffffffffffffffff38
:103e5c00ffff7de7978d52045204f454dbc6ffff3d
:103e6c00ffffffffffffffff9eef1cd71cd71cd7e8
:103e7c001cd71cd79defffffffffffffffffffffce
:103e8c001cd715655204f45c1cd7ffffffffffff26
:103e9c00ffffdff7bac6732c5204520452045204cb
:103eac005204520452045204520452045204520456
:103ebc0052045204d44c9abeffffffffffffffffda
:103ecc00ffffffffffffffffffff7de7f55c520cdd
:103edc005204520452045204720c59b6fffffffff5
:103eec00ffffffffffffbef73cdf1cd71cd71cd723
:103efc005ddfdef7ffffffffffffffffbef7f89d63
:103f0c00731cf45cb795f89d567d933c520c52048f
:103f1c005204520452045204932cf89ddff7dff73d
:103f2c0018a6720c520452045204730c598edff70b
:103f3c00ffffffffffffffffffffffffffffffff85
:103f4c00ffffffffffffffffbee7f86d7304520496
:103f5c0052045204933479b6ffffdef7968573143e
:103f6c0052045204520452045204520435753cdf7c
:103f7c00ffffffffffffffffffffffffffffffff45
:103f8c00bef739ae73245204520452045204520444
:103f9c00731cb78d9eefffffffffffffffffffffbf
:103fac00ffffffffffff7de7978d52045204f4548f
:103fbc00dbc6ffffffffffffffffffffdbc6b344c6
:103fcc00933c933c933cb33c7ab6ffffffffffff5f
:103fdc00ffffffff1cd715655204f45c1cd7ffffd5
:103fec00ffffffffffffdff7bac6732c520452042a
:103ffc005204520452045204520452045204520405
:10400c00520452045204520415651cd7ffffffffe3
:10401c00ffffdfff9eefffffffffffffffff9eefa6
:10402c009685731c5204520452045204720c59b6f5
:10403c00ffffffffffffffffffff1cd75575933cf2
:10404c00933c933c978d7de7ffffffffffffffff46
:10405c00bef7f89d5204730c7324732c731c52041a
:10406c00520452045204520452045204933c59ae6a
:10407c00dff7beefd89d5204520452045204730c65
:10408c009a9efffffffffffffffffffffffffffffa
:10409c00ffffffffffffffffffffffffdef739868c
:1040ac007304520452045204731439aedfffdff769
:1040bc00d7957324520452045204520452045204ed
:1040cc0035753cdfffffffffffffffffffffffff2b
:1040dc00ffffffffdfffbbc69334520452045204b0
:1040ec0052045204732459aebef7ffffffffffffcb
:1040fc00ffffffffffffffffffff7de7978d5204e0
:10410c005204f454dbc6ffffffffffffffffffff6e
:10411c00bbc67324520452045204731c59b6ffffdd
:10412c00ffffffffffffffff1cd715655204f45c78
:10413c001cd7ffffffffffffffffdff7bac6732c93
:10414c0052045204520452045204520452045204b3
:10415c0052045204520452045204520456759deff8
:10416c00ffffffffffffdef71cd7def7ffffffffb0
:10417c00ffffbef739ae732c5204520452045204a2
:10418c00720c59b6ffffffffffffffffffff1cd7ad
:10419c00156d52045204520476855de7ffffffff54
:1041ac00ffffffffbef7f89d520452045204520465
:1041bc005204520452045204520452045204520443
:1041cc00b4449abedfff9defb78d520452045204e3
:1041dc005204b31cdbaeffffffffffffffffffff2f
:1041ec00ffffffffffffffffffffffffffffffffd3
:1041fc00fff77a96730c5204520452045204f89d41
:10420c00bef7dff739a69334520452045204520419
:10421c005204520435753cdfffffffffffffffff29
:10422c00ffffffffffffffffffff3cdff45c520cc3
:10423c005204520452045204933cdbceffffffffa6
:10424c00ffffffffffffffffffffffffffff7de70c
:10425c00978d52045204f454dbc6ffffffffffff9f
:10426c00ffffffffbbc67324520452045204731c9d
:10427c0059b6ffffffffffffffffffff1cd71565c0
:10428c005204f45c1cd7ffffffffffffffffdff7bb
:10429c00bac6732c520452045204520452045204ef
:1042ac005204520452045204520452045204732411
:1042bc00b795def7ffffffffffffbef7bbc69def15
:1042cc00ffffffffffffdff7bac69334520452041f
:1042dc0052045204720c59b6ffffffffffffffffa1
:1042ec00ffff1cd7156d52045204520476855de70e
:1042fc00ffffffffffffffffbef7f89d52045204c4
:10430c0052045204520452045204520452045204f1
:10431c0052045204d44cdbceffff5de77685520489
:10432c00520452045204d424fbb6ffffffffffffdc
:10433c00ffffffffffffffffffffffffffffffff81
:10434c00ffffffffffffbba693145204520452045d
:10435c005204b7959eefdff77ab6b3445204520479
:10436c00520452045204520435753cdfffffffff28
:10437c00ffffffffffffffffffffffffffff7de7db
:10438c00978d7314520452045204520415653cdf89
:10439c00ffffffffffffffffffffffffffffffff21
:1043ac00ffff7de7978d52045204f454dbc6ffffe8
:1043bc00ffffffffffffffffbbc673245204520435
:1043cc005204731c59b6fffffffffffffffffffff7
:1043dc001cd715655204f45c1cd7ffffffffffffd1
:1043ec00ffffdff7bac6732c520452045204520476
:1043fc005204520452045204520452045204520401
:10440c005204933c59aedff7ffffffffffffbeeff7
:10441c0059ae5ddfffffffffffffffff1cd7b44c62
:10442c005204520452045204720c59b6ffffffff9f
:10443c00ffffffffffff1cd7156d520452045204ff
:10444c0076855de7ffffffffffffffffbef7f89ddf
:10445c0052045204520452045204520452045204a0
:10446c005204520452045204d4543cdfffff3cdf8c
:10447c0035755204520452045204353d3cc7ffffbb
:10448c00ffffffffffffffffffffffffffffffff30
:10449c00ffffffffffffffffffffdbb6d42452043b
:1044ac0052045204520496857de7dfffbbc6b44c20
:1044bc0052045204520452045204520435753cdf27
:1044cc00ffffffffffffffffffffdff7ffffffff18
:1044dc00ffffbef739ae7314520452045204720c2f
:1044ec00b78d7de7ffffffffffffdff7dff7ffff74
:1044fc00ffffffffffff7de7978d52045204f4543a
:10450c00dbc6ffffffffffffffffffffbbc67324f0
:10451c00520452045204731c59b6fffffffffffff5
:10452c00ffffffff1cd715655204f45c1cd7ffff7f
:10453c00ffffffffffffdff7bac6732c52045204d4
:10454c0052045204520452045204520452045204af
:10455c00520452045204d44cdbceffffffffffff8a
:10456c00ffff9eefd795fcd6ffffffffffffffff7e
:10457c005de75675730c520452045204720c59b612
:10458c00ffffffffffffffffffff1cd7156d52045e
:10459c0052047314b78d7de7ffffffffffffffff92
:1045ac00bef7d89d520452045204520452045204d1
:1045bc00520452045204520452045204f45c7de737
:1045cc00fffffcd6f45c52045204520452045645cc
:1045dc005dcfffffffffffffffffffffffffffffb1
:1045ec00ffffffffffffffffffffffffffff1cbff2
:1045fc0015355204520452045204567d5ddfffff00
:10460c001cd7d4545204520452045204520452047f
:10461c0035753cdfffffffffffffffffdfff7de78f
:10462c00bef7ffffffffffffbac6933452045204dc
:10463c005204731c39aedef7ffffffffdff79de777
:10464c00beefffffffffffffffff7de7978d5204db
:10465c005204f454dbc6ffffffffffffffffffff19
:10466c00bbc67324520452045204732479b6ffff60
:10467c00ffffffffffffffff1cd715655204f45c23
:10468c001cd7ffffffffffffffffdff7bac6732c3e
:10469c00520452045204520452045204520452045e
:1046ac0052045204520452045204f45c5ddfffffc6
:1046bc00ffffffffffff7de7567dbbc6ffffffff40
:1046cc00ffffffff9eefd795731452045204520460
:1046dc00720c59b6ffffffffffffffffffff3cdf30
:1046ec00b78d356d356d7685bbc6dff7ffffffffe8
:1046fc00ffffffff9defb78d52045204520452048a
:10470c005204520452045204520452045204520ce5
:10471c00156d9eefffffdbceb444520452045204dd
:10472c00520497557ddfffffffffffffffffffffe9
:10473c00ffffffffffffffffffffffffffffffff7d
:10474c00ffff3dcf56455204520452045204156dde
:10475c001cd7ffff5ddff45c520452045204520478
:10476c005204520435753cdfffffffffffffffffd4
:10477c00dff71cd77de7ffffffffffff1cd7156599
:10478c00520452045204b344bac6ffffffffffffaa
:10479c00beef1cd7beefffffffffffffffff7de764
:1047ac00978d52045204f454dbc6ffffffffffff4a
:1047bc00ffffffffdbc6932c731c731c7324156562
:1047cc00fbcefffffffffffffffffffffbcef45c05
:1047dc005204f45c1cd7ffffffffffffffffdff766
:1047ec00bac6732c5204520452045204520452049a
:1047fc005204520452045204520452047314567d4f
:10480c009eefffffffffffffffff3cdf15657ab652
:10481c00ffffffffffffffffdef759b6731c5204cb
:10482c0052045204720c59b6ffffffffffffffff4b
:10483c00ffffbef73cdf1cd71cdf7de7dff7ffff78
:10484c00ffffffffffffffff1cd71565520452044b
:10485c00520452045204520452045204520452049c
:10486c005204731c7685beefffff9abe732c520464
:10487c00520452045204d86dbeefffffffffffff3e
:10488c00ffffffffffffffffffffffffffffffff2c
:10489c00ffffffffffff7dd7764d520452045204f9
:1048ac005204d44cfbceffff9de715655204520415
:1048bc00520452045204520435753cdfffffffffd3
:1048cc00ffffffffdff7babe3cdfffffffffffff7d
:1048dc007de79685520452045204156d1cd7ffffd8
:1048ec00ffffffff7de7babebeefffffffffffff3d
:1048fc00ffff7de7978d52045204f454dbc6ffff93
:10490c00ffffffffffffffff5ddf59b659b659b63a
:10491c007ab6fcd6bef7ffffffffffffffffffffde
:10492c009abeb33c5204f45c1cd7ffffffffffffa1
:10493c00ffffdff7bac6732c520452045204520420
:10494c0052045204520452045204520452045204ab
:10495c00732cf89dbef7fffffffffffffffffbcea1
:10496c00d45418a6ffffffffffffffffffffbbc6de
:10497c009334520452045204720c59b6ffffffffd9
:10498c00ffffffffffffffffffffffffffffffff2b
:10499c00ffffffffffffffffffff9eeff89d732c54
:1049ac00520452045204520452045204520452044b
:1049bc005204520452047324d795bef7dff779b62c
:1049cc00731c52045204520473041876dff7ffff71
:1049dc00ffffffffffffffffffffffffffffffffdb
:1049ec00ffffffffffffffffffff9ee7b7655204ce
:1049fc005204520452049334bbc6ffffbeef5675eb
:104a0c0073145204520452045204520435753cdfa0
:104a1c00ffffffffffffffffdff759b6dbceffff06
:104a2c00ffffffffdef718a6731452045204978d94
:104a3c007de7ffffffffffff3cdf39ae9eefffff7f
:104a4c00ffffffffffff7de7978d52045204f454e4
:104a5c00dbc6ffffffffffffffffffffdfffbef720
:104a6c00bef7bef7def7ffffffffffffffffffff05
:104a7c00ffff9eeff89d73145204f45c1cd7ffffec
:104a8c00ffffffffffffdff7bac6732c520452047f
:104a9c00520452045204520452045204520452045a
:104aac0052045204933c9abedff7ffffffffffff57
:104abc00dff79abeb344f89ddef7ffffffffffff61
:104acc00ffff1cd71565520452045204720c59b6e0
:104adc00ffffffffffffffffffffffffffffffffda
:104aec00ffffffffffffffffffffffffdffffbce1f
:104afc0015657314520452045204520452045204a5
:104b0c0052045204520452045204932c19a6def798
:104b1c00bef739ae7314520452045204730c398626
:104b2c00ffffffffffffffffffffffffffffffff89
:104b3c00ffffffffffffffffffffffffffffdeefaa
:104b4c00f86d5204520452045204731c7abedffff7
:104b5c00bef7978d7324520452045204520452042b
:104b6c0035753cdfffffffffffffffffdff759ae9f
:104b7c0059b6bef7ffffffffffff9abeb3445204c6
:104b8c00731c18a6dff7ffffffffdfffdbc6f89de6
:104b9c009eefffffffffffffffff7de7978d5204a6
:104bac005204f454dbc6ffffffffffffffffffffc4
:104bbc00fffffffffffffffffffffffffffffffff9
:104bcc00ffffffffdff7bbc6d45452045204f45c62
:104bdc001cd7ffffffffffffffffdff7bac6732ce9
:104bec005204520452045204520452045204520409
:104bfc005204520452045204b4441cd7ffffffff6a
:104c0c00ffffffffdff759ae933cb78d9eefffff21
:104c1c00ffffffffffff5de77685520c5204520445
:104c2c00720c59b6fffffffffffffffffffffffff7
:104c3c00ffffffffffffffffffffffffffffffff78
:104c4c00ffff9eef59b6b44c520452045204520466
:104c5c005204520452045204520452045204933427
:104c6c007ab6def79eeff89d731452045204520488
:104c7c00b3147a96ffffffffffffffffffffffff5d
:104c8c00ffffffffffffffffffffffffffffffff28
:104c9c00ffffffff39867304520452045204731c45
:104cac0059aedef7bef7f89d732c52045204520431
:104cbc005204520435753cdfffffffffffffffff7f
:104ccc00dff759aeb78d9eefffffffffffff1cd73d
:104cdc0015655204b44c9abeffffffffffffbef7f1
:104cec0039aed89d9eefffffffffffffffff7de773
:104cfc00978d52045204f454dbc6fffffffffffff5
:104d0c00ffffffffffffffffffffffffffffffffa7
:104d1c00ffffffffffffbef7dbce356d731c5204a8
:104d2c005204f45c1cd7ffffffffffffffffdff710
:104d3c00bac6732c52045204520452045204520444
:104d4c0052045204520452045204730c15657de74c
:104d5c00ffffffffffffffffdef7f89d932c76852b
:104d6c007de7ffffffffffffffffbeeff89d720c1b
:104d7c0052045204720c59b6fffffffffffffffff6
:104d8c00ffffffffdfffdff7dff7dfffffffffffb7
:104d9c00ffffffffffffffff9eeff89d7324520400
:104dac005204520452045204520452045204520447
:104dbc005204933cbbc6dff77de7b78d73145204e6
:104dcc0052045204d424bba6ffffffffffffffffda
:104ddc00ffffffffffffffffffffffffffffffffd7
:104dec00ffffffffffffffff7a969314520452045c
:104dfc005204731418a6beefdef759ae9334520466
:104e0c00520452045204520435753cdfffffffff7d
:104e1c00ffffffffdff739ae15655de7ffffffff13
:104e2c00ffff7de7767d520415651cd7ffffffff62
:104e3c00ffff9eef978dd79d9eefffffffffffffbc
:104e4c00ffff7de7978d52045204f454dbc6ffff3d
:104e5c00ffffffffffffffffffffffffffffffff56
:104e6c00ffffffffffffdef75ddf7ab61565731cf2
:104e7c00520452045204f45c1cd7ffffffffffffe7
:104e8c00ffffdff7bac6732c5204520452045204cb
:104e9c005204520452045204520452045204731c1d
:104eac00b78d9eefffffffffffffffffdef718a69a
:104ebc005675d8955de7ffffffffffffffffdfff94
:104ecc0059b6732452045204720c59b6fffffffffb
:104edc00ffffffffffff9eefdbce9abe9abebbc665
:104eec001cd7bef7ffffffffffffffffffffdbce6f
:104efc00f45c5204520452045204520452045204fc
:104f0c00520452045204b3441cd7ffff5de7567d94
:104f1c00720c520452045204f52cfcb6ffffffff36
:104f2c00ffffffffffffffffffffffffffffffff85
:104f3c00ffffffffffffffffffffffff9a9eb41c69
:104f4c005204520452047314b7959eefdff79abec5
:104f5c00933c5204520452045204520435753cdf03
:104f6c00ffffffffffffffffdff739aeb444fcd6b6
:104f7c00ffffffffffffdef7f89d7324767d9eefaa
:104f8c00ffffffffffff7de7f564d7959eefffff67
:104f9c00ffffffffffff7de7978d52045204f4548f
:104fac00dbc6ffffffffffffffffffffbef75de765
:104fbc005de75de75ddf1cd7dbc639ae767d933ce4
:104fcc00720c5204520452045204f45c1cd7ffffbe
:104fdc00ffffffffffffdff7bac6732c520452042a
:104fec005204520452045204520452045204520405
:104ffc005204732439aebef7ffffffffffffffff24
:10500c00ffff5de73cdf5ddfbef7ffffffffffff4c
:10501c00ffffffffbbc6d45452045204720c59b6a6
:10502c00ffffffffffffffffffff1cd7356d732452
:10503c0073247324f55cbbc6dff7ffffffffffff94
:10504c00ffff5ddf567552045204520452045204a1
:10505c0052045204520452045204b44c3cdfffff7d
:10506c003cdf1565520c520452045204353d3cc7ca
:10507c00ffffffffffffffffffffffffffffffff34
:10508c00ffffffffffffffffffffffffffffffff24
:10509c00dbb6f42c520452045204730c96857de753
:1050ac00dfffdbceb34452045204520452045204c8
:1050bc0035753cdfffffffffffffffffdff739ae6a
:1050cc00933c7ab6def7ffffffffffff7abed454a6
:1050dc00f89ddff7fffffffffffffbceb44cd7952a
:1050ec009eefffffffffffffffff7de7978d520451
:1050fc005204f454dbc6ffffffffffffffffffff6f
:10510c001cd7768576857685567d356dd44c732483
:10511c00520c520452045204520452045204f45cd1
:10512c001cd7ffffffffffffffffdff7bac6732c93
:10513c0052045204520452045204520452045204b3
:10514c005204520452049334bbc6dfffffffffff2f
:10515c00ffffffffffffffffffffffffffffffff53
:10516c00ffffffffffffffff3cdf356d52045204d2
:10517c00720c59b6ffffffffffffffffffff1cd7ad
:10518c00156d520452045204731418a6beefffff9f
:10519c00ffffffffffff7de7767d520452045204b0
:1051ac00520452045204520452045204520cf45c41
:1051bc007de7ffff1cd7d44c520452045204520416
:1051cc00564d7ddfffffffffffffffffffffffffe0
:1051dc00ffffffffffffffffffffffffffffffffd3
:1051ec00ffffffff1cbf1535520452045204520c32
:1051fc00356d5ddfffff1cdfb444520452045204d2
:10520c005204520435753cdfffffffffffffffff29
:10521c00dff739ae732cb795bef7ffffffffffff2b
:10522c001cd735759abedfffffffffffdff759b6be
:10523c00933cd7959eefffffffffffffffff7de73e
:10524c00978d52045204f454dbc6ffffffffffff9f
:10525c00ffffffffbbc673245204520452045204d6
:10526c005204520452045204520452045204520482
:10527c005204f45c1cd7ffffffffffffffffdff7bb
:10528c00bac6732c520452045204520452045204ef
:10529c0052045204520452045204d4541cd7ffff3b
:1052ac00ffffffffffffffffffffffffffffffff02
:1052bc00ffffffffffffffffffffffff9de796854f
:1052cc0052045204720c59b6ffffffffffffffffa1
:1052dc00ffff1cd7156d5204520452047314f89d31
:1052ec009eefffffffffffffffff7de77685520478
:1052fc0052045204520452045204520452045204f2
:10530c00731456757de7fffffbce933452045204a1
:10531c00520452047655bee7ffffffffffffffff6d
:10532c00ffffffffffffffffffffffffffffffff81
:10533c00ffffffffffffffff5dcf564552045204f6
:10534c0052045204f4543cdfffff5de7d454520482
:10535c00520452045204520435753cdfffffffff28
:10536c00ffffffffdff739ae7314356d9defffffc5
:10537c00ffffffff9eefb7953cdfffffffffffff37
:10538c00bef7b7957324d7959eefffffffffffff86
:10539c00ffff7de7978d52045204f454dbc6ffffe8
:1053ac00ffffffffffffffffbbc673245204520435
:1053bc005204520452045204520452045204520431
:1053cc00520452045204f45c1cd7ffffffffffff92
:1053dc00ffffdff7bac6732c520452045204520476
:1053ec00520452045204520452045204720c567d5c
:1053fc005de7ffffffffffffffffffffffffffff6b
:10540c00ffffffffffffffffffffffffffffffffa0
:10541c00dff7f89d731c5204720c59b6ffffffffa7
:10542c00ffffffffffff1cd7156d520452045204ff
:10543c007314f89d9eefffffffffffffffff7de75b
:10544c0076855204520452045204520452045204fb
:10545c0052045204731c978d9eefdff7bac6732c5f
:10546c005204520452047304b765dff7ffffffffc9
:10547c00ffffffffffffffffffffffffffffffff30
:10548c00ffffffffffffffffffffffff9ee7764dd4
:10549c005204520452045204933c1cd7ffff7de784
:1054ac00356d730c520452045204520435753cdfb2
:1054bc00ffffffffffffffffdff739ae720cd45485
:1054cc001cd7ffffffffffffdef79abebeefffff0b
:1054dc00ffffffff7de7356d720cd7959eefffff49
:1054ec00ffffffffffff7de7978d52045204f4543a
:1054fc00dbc6ffffffffffffffffffffbbc67324f1
:10550c0052045204520452045204520452045204df
:10551c0052045204520452045204f45c1cd7ffff90
:10552c00ffffffffffffdff7bac6732c52045204d4
:10553c0052045204520452045204520452045204af
:10554c007314f89d9eefffffffffffffffffffffb0
:10555c00dff7def7def7def7def7ffffffffffff1b
:10556c00ffffffffffff59b6b33c5204720c59b654
:10557c00ffffffffffffffffffff1cd7156d52045e
:10558c0052045204933459aebef7ffffffffffffe6
:10559c00ffff7de7567d520452045204520452041c
:1055ac0052045204520452047324f89dbeefdef7e9
:1055bc007ab6732c520452045204730cf875fff72c
:1055cc00ffffffffffffffffffffffffffffffffdf
:1055dc00ffffffffffffffffffffffffffffffffcf
:1055ec00deef975d5204520452045204932cdbc636
:1055fc00ffff9eef7685731c520452045204520432
:10560c0035753cdfffffffffffffffffdff739ae14
:10561c00720cb3449abedfffffffffffffff7de775
:10562c00dfffffffffffffff1cd7f45c5204d79591
:10563c009eefffffffffffffffff7de7978d5204fb
:10564c005204f454dbc6ffffffffffffffffffff19
:10565c00bbc6732452045204520452045204520422
:10566c005204520452045204520452045204f45c84
:10567c001cd7ffffffffffffffffffff1cd7b78dfe
:10568c00978d978d978d978d978d978d9685d44cfb
:10569c00520c5204731c59b6dff7ffffffffffffdc
:1056ac00ffff9eefbac679b679b679b67ab65de7e2
:1056bc00fffffffffffffffffffffbcef45c520479
:1056cc00720c59b6ffffffffffffffffffff5ddf0f
:1056dc00f8a5978d978db78d39ae5ddfffffffff76
:1056ec00ffffffffffff3cdf356d520452045204f5
:1056fc00520452045204520452045204732439ae1c
:10570c00bef7bef718a67324520452045204931425
:10571c003986ffffffffffffffffffffffffffffcc
:10572c00ffffffffffffffffffffffffffffffff7d
:10573c00ffffffffdff7d86d730c520452045204c5
:10574c00732c9abedff79eefd795731c520452044c
:10575c005204520435753cdfffffffffffffffffd4
:10576c00dff739ae720c732cf89ddff7ffffffffec
:10577c00ffffffffffffffffffffdfff7abeb44419
:10578c005204d7959eefffffffffffffffff7de762
:10579c00978d52045204f454dbc6ffffffffffff4a
:1057ac00ffffffffbbc67324520452045204520481
:1057bc00520452045204520452045204520452042d
:1057cc005204f45c1cd7ffffffffffffffffffff3e
:1057dc00bef77de77de77de77de77de77de77de74c
:1057ec005de7768573145204b344dbc6fffffffffd
:1057fc00fffffffffffffbce1565731c731c731cb3
:10580c00932c7ab6def7ffffffffffffffff5ddf94
:10581c00356d5204720c59b6ffffffffffffffffff
:10582c00ffffdff79eef7de77de79defbef7ffff04
:10583c00ffffffffffffffffffff9abeb44c5204b8
:10584c00520452045204520452045204520452049c
:10585c00732c9abedff79eefd89d7324520452042a
:10586c005204b41c9a9effffffffffffffffffffd8
:10587c00ffffffffffffffffffffffffffffffff2c
:10588c00ffffffffffffffffffff197e9314520482
:10589c0052045204732439aebef7bef718a6732413
:1058ac00520452045204520435753cdfffffffffd3
:1058bc00ffffffffdff739ae720c730c567d9eefc6
:1058cc00ffffffffffffffffffffffffffffdff704
:1058dc00d89d73245204d7959eefffffffffffff67
:1058ec00ffff7de7978d52045204f454dbc6ffff93
:1058fc00ffffffffffffffffbbc6732452045204e0
:10590c0052045204520452045204520452045204db
:10591c00520452045204f45c1cd7ffffffffffff3c
:10592c00ffffffffffffffffffffffffffffffff7b
:10593c00ffffffffdff7b795731c5204156d1cd7e3
:10594c00ffffffffffffffffffff7ab6933c520400
:10595c0052045204731cf89d9eefffffffffffffe4
:10596c00ffffbef776857314720c59b6ffffffff6d
:10597c00ffffffffffffffffffffffffffffffff2b
:10598c00ffffffffffffffffffffffff5de7978daf
:10599c00731452045204520452045204520452041a
:1059ac0052045204932cdbc6ffff9eef7685731cca
:1059bc00520452045204d424dbaeffffffffffff5e
:1059cc00ffffffffffffffffffffffffffffffffdb
:1059dc00ffffffffffffffffffffffffffff7a96b9
:1059ec00b41c5204520452047324f89dbeefdef72b
:1059fc0059b67324520452045204520435753cdfd8
:105a0c00ffffffffffffffffdff739ae720c520401
:105a1c0015653cdffffffffffffffffffffffffff1
:105a2c00ffff9eef767d520c5204d7959eefffff41
:105a3c00ffffffffffff7de7978d52045204f454e4
:105a4c00dbc6ffffffffffffffffffffbbc673249b
:105a5c00520452045204520452045204520452048a
:105a6c0052045204520452045204f45c1cd7ffff3b
:105a7c00ffffffffffffffffffffffffffffffff2a
:105a8c00ffffffffffffffffdff7b795731c52040b
:105a9c0096857de7ffffffffffffffffdef718a6f0
:105aac0073145204520452047314567d7de7ffffa5
:105abc00ffffffffffffdff718a69334720c59b6f8
:105acc00ffffffffffffffffffffffffffffffffda
:105adc00ffffffffffffffffffffffffffff7de764
:105aec0018a6933c52045204520452045204520419
:105afc005204520452045204933cfcd6ffff7de73f
:105b0c00356d7314520452045204f52c1cbfffff64
:105b1c00ffffffffffffffffffffffffffffffff89
:105b2c00ffffffffffffffffffffffffffffffff79
:105b3c00ffffbba6d424520452045204731cb78d2d
:105b4c009eefdff7bac6732c52045204520452046f
:105b5c0035753cdfffffffffffffffffdff739aebf
:105b6c00720c5204d44cbac6ffffffffffffffffbd
:105b7c00ffffffffffff3cd7156d52045204d79572
:105b8c009eefffffffffffffffff7de7978d5204a6
:105b9c005204f454dbc6ffffffffffffffffffffc4
:105bac00bbc67324520452045204520452045204cd
:105bbc005204520452045204520452045204f45c2f
:105bcc001cd7ffffffffffffffffffffffffffffe4
:105bdc00ffffffffffffffffffffffffdff7b795a3
:105bec00731c730cf89dbef7ffffffffffffffff59
:105bfc007de7978d52045204520452045204d44c43
:105c0c003cdfffffffffffffffffdfff9abeb44447
:105c1c00720c59b6fffffffffffffffffffffffff7
:105c2c00ffffffffffffffffffffffffffffbef7c1
:105c3c003cdfd89db3445204520452045204520423
:105c4c00520452045204520452045204f4543cdfe1
:105c5c00ffff5de7d454520452045204520415352c
:105c6c005dd7ffffffffffffffffffffffffffff02
:105c7c00ffffffffffffffffffffffffffffffff28
:105c8c00fffffffffffffbb6f42c5204520452043b
:105c9c00731456757de7fffffbce93345204520408
:105cac0052045204356dfbcebef7bef7bef7bef7fd
:105cbc009eef18a6520c5204732cf89d9eefbef763
:105ccc00bef7bef7bef7bef7beef9abed44c520479
:105cdc005204b78d5de7bef7bef7bef7bef73cdfeb
:105cec00768552045204d4549abebeefbef7bef76a
:105cfc00bef7beef9abe73245204520452045204ef
:105d0c0052045204520452045204520452045204d7
:105d1c005204f45cdbcebeefbef7bef7bef7bef7a7
:105d2c00bef7bef7bef7bef7bef7bef7bef7bef7bf
:105d3c009eef978d7314732c39aebeefbef7bef782
:105d4c00bef7bef7fbd6356d520452045204520412
:105d5c0052049334bac69eefbef7bef7bef7beef41
:105d6c00dbced454720c39aebeefbef7bef7bef725
:105d7c00bef7bef7bef7bef7bef7beef9eef7de7f0
:105d8c001cd759ae356d932c520452045204520454
:105d9c005204520452045204520452045204520c3f
:105dac00356d5ddfffff3cd7b444520452045204fe
:105dbc005204353d9ee7ffffffffffffffffffff94
:105dcc00ffffffffffffffffffffffffffffffffd7
:105ddc00ffffffffffffffffffff3dcf1535520415
:105dec0052045204520cf55c7de7ffff1cd7b44cf7
:105dfc005204520452045204b44cb78d18a618a67f
:105e0c0018a618a618a63575520452045204156526
:105e1c0018a618a618a618a618a618a618a6567579
:105e2c00732452045204f564f89d18a618a618a6fb
:105e3c0018a6d795f45c520452049334768518a6b0
:105e4c0018a618a618a618a6768573145204520420
:105e5c005204520452045204520452045204520486
:105e6c00520452045204933c978d18a618a618a6f7
:105e7c0018a618a618a618a618a618a618a618a626
:105e8c0018a618a618a6f45c720c732c567d18a6ce
:105e9c0018a618a618a618a6978d933c520452045f
:105eac005204520452047324567d18a618a618a640
:105ebc0018a618a6b795933c5204357518a618a6c3
:105ecc0018a618a618a618a618a618a618a618a6d6
:105edc00d795767dd454732c731452045204520407
:105eec0052045204520452045204520452045204f6
:105efc005204730c76857de7dffffbceb34452046e
:105f0c00520452047304764ddeefffffffffffffd8
:105f1c00ffffffffffffffffffffffffffffffff85
:105f2c00ffffffffffffffffffffffffffff7ddf17
:105f3c00353d5204520452045204b44c5cdfffff52
:105f4c003cdf1565520c5204520452045204731473
:105f5c0073147314731473147314720c5204520468
:105f6c005204520c73147314731473147314731447
:105f7c007314720c520452045204520c73147314a2
:105f8c007314731473147314520c52045204520489
:105f9c00730c73147314731473147314730c5204fe
:105fac005204520452045204520452045204520435
:105fbc0052045204520452045204520473147314c3
:105fcc00731473147314731473147314731473148d
:105fdc0073147314731473147314520c5204520408
:105fec00730c7314731473147314731473145204a6
:105ffc00520452045204520452045204730c73148b
:10600c007314731473147314731452045204720cb7
:10601c00731473147314731473147314731473143c
:10602c00731473147314730c5204520452045204f8
:10603c0052045204520452045204520452045204a4
:10604c005204520452047314b7959defdff79abeb5
:10605c00933c520452045204730c975dbeefffff45
:10606c00ffffffffffffffffffffffffffffffff34
